:100000000C94B4020C94D1020C94D1020C94D10241
:100010000C94D1020C94D1020C94D1020C94D10214
:100020000C94D1020C94D1020C94D1020C94D10204
:100030000C94D1020C94D3020C94D1020C94D102F2
:100040000C94D1020C94D1020C94D1020C94D102E4
:100050000C94D1020C94D1020C94D1020C94D102D4
:100060000C94D1020C94D1026462615F5E5C5B5AB5
:10007000585756545352504F4E4D4B4A4948474695
:100080004544434241403F3E3D3C3B3A3938373698
:1000900036353433323231302F2F2E2D2C2C2B2A63
:1000A0002A292828272726252524242323222121FD
:1000B00020201F1F1E1E1E1D1D1C1C1B1B1A1A1A72
:1000C00019191918181717171616161515151414C7
:1000D0001413131312121212111111111010101007
:1000E0000F0F0F0F0E0E0E0E0E0D0D0D0D0D0C0C35
:1000F0000C0C0C0B0B0B0B0B0B0A0A0A0A0A0A0955
:10010000090909090909080808080808080807076B
:100110000707070707070706060606060606060678
:10012000060605050505050505050505050505047E
:100130000404040404040404040404040404040380
:10014000030303030303030303030303030303037F
:10015000030303030302020202020202020202027A
:100160000202020202020200646464646464646461
:10017000646464646464646464646464646464643F
:10018000646464646464646464646464646464642F
:10019000646464646464646464646464646464641F
:1001A000646464646464646464646464646464640F
:1001B00064646464646464646464646464646464FF
:1001C00064646464646464646464646464646464EF
:1001D00064646464646464646464646464646464DF
:1001E00064646464646464646464646464646464CF
:1001F00064646464646464646464646464646464BF
:1002000064646464646464646464646464646464AE
:10021000646464646464646464646464646464649E
:10022000646464646464646464646464646464648E
:10023000646464646464646464646464646464647E
:10024000646464646464646464646464646464646E
:10025000646464646464646464646464646464645E
:1002600064646464646464647E7E7E7F7F7F7F7F79
:100270007F7F7F7F7E7E7E7E7E7E7E7E7D7D7D7D9E
:100280007D7D7D7D7C7C7C7C7C7C7C7C7B7B7B7BAE
:100290007B7B7B7B7A7A7A7A7A7A7A7A79797979BE
:1002A00079797979787878787878787877777777CE
:1002B00077777777767676767676767675757575DE
:1002C00075757575747474747474747473737373EE
:1002D00073737373727272727272727271717171FE
:1002E0007171717170707070707070706F6F6F6F0E
:1002F0006F6F6F6F6F6E6E6E6E6E6E6E6E6D6D6D1C
:100300006D6D6D6D6D6C6C6C6C6C6C6C6C6B6B6B2B
:100310006B6B6B6B6B6A6A6A6A6A6A6A6A6969693B
:10032000696969696968686868686868686767674B
:10033000676767676766666666666666666565655B
:10034000656565656564646464646464646363636B
:10035000636363636362626262626262626161617B
:100360006161616161606060000205070A0C0E1046
:10037000121417191B1C1E2022242627292B2C2E71
:10038000303133343537383A3B3C3E3F40414344CB
:1003900045464748494A4B4C4D4E4F505152535495
:1003A000545556575858595A5B5B5C5D5D5E5F5FAC
:1003B00060606162626363646465656666676768FE
:1003C0006869696A6A6A6B6B6C6C6C6D6D6D6E6E78
:1003D0006E6F6F6F70707070717171727272727314
:1003E00073737374747474747575757575767676C5
:1003F0007676767777777777777878787878787889
:100400007879797979797979797A7A7A7A7A7A7A56
:100410007A7A7A7A7B7B7B7B7B7B7B7B7B7B7B7B30
:100420007C7C7C7C7C7C7C7C7C7C7C7C7C7C7C7C0C
:100430007C7C7D7D7D7D7D7D7D7D7D7D7D7D7D7DEE
:100440007D7D7D7D7D7D7D7D7D7D7D7D7E7E7E7ED8
:100450007E7E7E7E7E7E7E7E7E7E7E7E7E7E7E7EBC
:100460007E7E7E7E7E7E7E7E000306090C0F121548
:10047000181B1E2124272A2D303336393B3E414399
:1004800046494B4E50525557595B5E6062646667F1
:10049000696B6C6E7071727475767778797A7B7B24
:1004A0007C7D7D7E7E7E7E7E7F7E7E7E7E7E7D7D71
:1004B0007C7B7B7A7978777675747271706E6C6BF1
:1004C0006967666462605E5B59575552504E4B498E
:1004D0004643413E3B393633302D2A2724211E1B0B
:1004E0001815120F0C09060300FDFAF7F4F1EEEBF4
:1004F000E8E5E2DFDCD9D6D3D0CDCAC7C5C2BFBDDF
:10050000BAB7B5B2B0AEABA9A7A5A2A09E9C9A9966
:1005100097959492908F8E8C8B8A89888786858513
:1005200084838382828282828182828282828383A6
:10053000848585868788898A8B8C8E8F9092949506
:1005400097999A9C9EA0A2A5A7A9ABAEB0B2B5B749
:10055000BABDBFC2C5C7CACDD0D3D6D9DCDFE2E5AC
:10056000E8EBEEF1F4F7FAFC11241FBECFEFD8E070
:10057000DEBFCDBF11E0A0E0B1E0E6EFF9E002C0E0
:1005800005900D92A230B107D9F721E0A2E0B1E0C9
:1005900001C01D92AB32B207E1F70E945F040C94D8
:1005A000F9040C9400001F920F920FB60F921124C1
:1005B0002F933F934F935F936F937F938F939F936B
:1005C000AF93CF93DF93EF93FF93B89B06C0B99A95
:1005D000809102018F5F80930201E0910201F0E0BF
:1005E000E859FB4F2081259525952595809100019F
:1005F00090910101820F911D27FD9A95909387009C
:1006000080938600C3E0D1E0EA81F0E0E859FB4F37
:100610009491EC81FD810024EE0FFF1F001CEE0F72
:10062000FF1F001CEF2FF02D2F813885E20FF31FE5
:100630008491EB85F0E0E859FB4F5491ED85FE8500
:100640000024EE0FFF1F001CEE0FFF1F001CEF2FFA
:10065000F02D28893989E20FF31F4491EC89F0E0ED
:10066000E859FB4F3491EE89FF890024EE0FFF1FFC
:10067000001CEE0FFF1F001CEF2FF02D698D7A8DEF
:10068000E60FF71F2491ED8DF0E0E859FB4FA491A0
:10069000EF8DF8A10024EE0FFF1F001CEE0FFF1FCF
:1006A000001CEF2FF02D6AA17BA1E60FF71FE4914C
:1006B0009802C0011124880F892F881F990B5402BA
:1006C000A0011124440F452F441F550B840F951F83
:1006D000320290011124220F232F221F330B820F8D
:1006E000931FAE02F0011124EE0FEF2FEE1FFF0B50
:1006F0008E0F9F1F959587959595879581589F4F4C
:1007000080938800FE0127E231E08081882359F040
:1007100092818381890F8283468184819581840FB0
:10072000911D958384833996E217F30771F7FF9142
:10073000EF91DF91CF91AF919F918F917F916F91C9
:100740005F914F913F912F910F900FBE0F901F908F
:100750001895FC018081811103C0158214820FC09D
:10076000823059F4248135812F77332780E890E057
:10077000821B930B9583848302C01582148288E6C2
:1007800093E09087878381E080838091270186832F
:100790000895FC01158214828081813051F488E62D
:1007A00092E09087878382E080838091280186830E
:1007B0000895823051F488E691E09087878383E042
:1007C00080838091290186830895833051F488E6DF
:1007D00090E09087878384E0808380912A018683DC
:1007E0000895843019F41082118212820895ECE782
:1007F000F0E09081907F8F70892B8083EAE7F0E0B2
:10080000808180648083808186FDFDCF8091790026
:100810000895E0EBF0E0808182608083E1EBF0E01E
:1008200080818560808380E48093B300E0E8F0E01D
:10083000808182688083E1E8F0E080818961808343
:10084000EFE6F0E0808181608083809100019091EB
:10085000010190938700809386008FEF90E0909342
:100860008900809388007894089580E680937C00C6
:10087000EAE7F0E0808187688083808180648083FC
:10088000808186FDFDCF08958AB18F608AB9219A53
:100890000895E3E0F1E081E0128210828383118207
:1008A00015821482168239968E5F8930A9F7E7E2A5
:1008B000F1E081E080838183828383830895CF93F5
:1008C000DF93CDB7DEB760970FB6F894DEBF0FBEEB
:1008D000CDBF19821A821B821C821D821E821F823A
:1008E000188619861A861B861C860E9435040E946B
:1008F00044040E9409040E94490466246394712CF4
:100900006F86788A6E0189E0C80ED11C4E0195E091
:10091000890E911C0F2EF3E0EF2EF1E0FF2EF02D4B
:10092000FE0131965F0100E010E0302E2601F60155
:100930008081882359F02BB1C301002E02C0880F9B
:10094000991F0A94E2F7822B8BB90CC09BB19301DB
:10095000002E02C0220F331F0A94E2F7822F8095E7
:1009600089238BB9FE86ED86F7018481958195FFF9
:1009700006C08081882319F0C7010E94C903F501D0
:100980002080832D0E94F703F50181935F0182335C
:1009900030F0F401808381E0F20180831AC02F855A
:1009A0003889821510F020E030E0F2019081892F23
:1009B00090E082239323892B51F0F4018081ED850F
:1009C000FE858183CF010E94A903F4011082F20108
:1009D00010820F5F1F4FFFEFCF1ADF0A8FEF881AC9
:1009E000980A99E0E90EF11C0430110509F09DCF39
:0609F00089CFF894FFCF4F
:0209F6006B0193
:00000001FF
