S013000054616B7061645F333238502E7372656370
S11300000C9434000C943E000C943E000C943E007E
S11300100C943E000C943E000C943E000C943E0064
S11300200C943E000C943E000C943E000C943E0054
S11300300C943E000C943E000C943E000C943E0044
S11300400C943E000C943E000C943E000C943E0034
S11300500C943E000C943E000C943E000C943E0024
S11300600C943E000C943E0011241FBECFEFD8E048
S1130070DEBFCDBF0E9465000C94AC000C94000060
S1130080ECE7F0E09081907F8F70892B8083EAE722
S1130090F0E0808180648083808186FDFDCF809143
S11300A07900089580E680937C00EAE7F0E080819F
S11300B087688083808180648083808186FDFDCF12
S11300C008958AB18F608AB90895CF93DF9300D0E1
S11300D000D0CDB7DEB719821A821B821C820E941F
S11300E052000E946100AA24A394B12C99249394F1
S11300F0CE0101967C0100E010E0802F6701F7013A
S11301009081992359F09BB19501002E02C0220FD2
S1130110331F0A94E2F7292B2BB90CC02BB1A5018C
S1130120002E02C0440F551F0A94E2F7942F9095B5
S113013092239BB90E944000823318F0F60190820A
S113014002C0F60110820F5F1F4FFFEFEF1AFF0A84
S10F01500430110591F6CCCFF894FFCFD9
S9030000FC
