:100000000C9434000C943E000C943E000C943E0082
:100010000C943E000C943E000C943E000C943E0068
:100020000C943E000C943E000C943E000C943E0058
:100030000C943E000C943E000C943E000C943E0048
:100040000C943E000C943E000C943E000C943E0038
:100050000C943E000C943E000C943E000C943E0028
:100060000C943E000C943E0011241FBECFEFD8E04C
:10007000DEBFCDBF0E9467000C94AF000C9400005F
:10008000ECE7F0E020819081207F8F70822B982B0D
:100090009083EAE7F0E0808180648083808186FD40
:1000A000FDCF80917900089580E680937C00EAE797
:1000B000F0E0808187688083808180648083808194
:1000C00086FDFDCF08958AB18F608AB90895CF93D8
:1000D000DF9300D000D0CDB7DEB719821A821B8221
:1000E0001C820E9454000E946300CC24C394D12C33
:1000F00001E0CE0101967C01FC0180E090E02191BD
:10010000222359F04BB19601082E02C0220F331F53
:100110000A94E2F7242B2BB90CC03BB1A601082EA0
:1001200002C0440F551F0A94E2F7242F2095232381
:100130002BB901968430910511F710E0812F0E94B0
:100140004000823318F0F701008302C0F7011082EB
:100150001F5FFFEFEF1AFF0A143081F7CACFF89440
:02016000FFCFCF
:00000001FF
