:100000000C9434000C9451000C9451000C94510049
:100010000C9451000C9451000C9451000C9451001C
:100020000C9451000C9451000C9451000C9451000C
:100030000C9451000C9498000C9451000C945100B5
:100040000C9451000C9451000C9451000C945100EC
:100050000C9451000C9451000C9451000C945100DC
:100060000C9451000C94510011241FBECFEFD8E026
:10007000DEBFCDBF13E0A0E0B1E0E4E6F4E002C0F3
:1000800005900D92A030B107D9F723E0A0E0B3E0CE
:1000900001C01D92A931B207E1F70E9486010C94BC
:1000A00030020C940000FC01EE0FFF1FDF01A80FCF
:1000B000B91FAA0FBB1FAF5FBC4F21E02C93FD01FE
:1000C000838190E09C01220F331F820F931F880FC2
:1000D000991F880F991F880F991F15969C938E93CF
:1000E000149780910003843020F48F5F8093000385
:1000F000089584E0809300030895FC01EE0FFF1F34
:10010000DF01A80FB91FAA0FBB1FAF5FBC4F1C9226
:1001100011961C921197FD01128280910003882391
:1001200021F08150809300030895109200030895F8
:100130001F920F920FB60F9211242F933F934F935C
:100140005F936F937F938F939F93AF93BF93EF933F
:10015000FF93A1E0B3E01296EC911297F0E0E0502B
:10016000FE4F20811896EC911897F0E0E050FF4F79
:10017000808190E0820F911D1E96EC911E97F0E019
:10018000E050FF4F2081820F911D5496EC91F0E0DA
:10019000E050FF4F2081820F911D209100032330FA
:1001A00039F02430A9F02230B9F49595879514C020
:1001B0009C01359527953595279595958795959526
:1001C00087959595879595958795820F931F04C080
:1001D000959587959595879580938800E1E0F3E064
:1001E00069E173E081E040E0DF019081282F911107
:1001F00001C0242F222381F0282F953009F4242FC9
:10020000222351F012962C91129713969C911397DA
:10021000920F12969C93129714962D913C911597DC
:10022000982F12965C9112975F3F09F0942F9923B3
:1002300069F0982F2115310509F4942F992331F095
:100240002150310915963C932E9314973696E61754
:10025000F70751F6FF91EF91BF91AF919F918F9169
:100260007F916F915F914F913F912F910F900FBEB2
:100270000F901F901895ECE7F0E09081907F8F70C1
:10028000892B8083EAE7F0E080818064808380812D
:1002900086FDFDCF809179000895E0E8F0E080814F
:1002A00081688083E1E8F0E0808189608083EFE607
:1002B000F0E080818160808378948FE090E090937B
:1002C000890080938800089580E680937C00EAE7A7
:1002D000F0E0808187688083808180648083808172
:1002E00086FDFDCF08958AB18F608AB9219A08955D
:1002F000E1E0F3E081E012821082838311821582B3
:10030000148236968C5F8131B1F70895CF93DF93D5
:10031000CDB7DEB763970FB6F894DEBF0FBECDBF83
:1003200019821A821B821C821D821E821F821886DD
:1003300019861A861B861C860E9464010E9473011E
:100340000E944D010E94780166246394712C6A8A90
:100350007B8A81E08D870F2EF1E0EF2EF3E0FF2EF8
:10036000F02D4E0195E0890E911C5E01E9E0AE0E84
:10037000B11CCE0101966C0100E010E0302E088B1C
:10038000198B2701F7018081813059F42BB1C3010A
:10039000002E02C0880F991F0A94E2F7822B8BB9B6
:1003A0000CC09BB19301002E02C0220F331F0A9490
:1003B000E2F7822F809589238BB98D85F201248104
:1003C0003581232B09F080E0882361F08D85F201CF
:1003D0009081913009F080E0882321F08889998903
:1003E0000E947D00F6012080832D0E943B01F601D2
:1003F00081936F01823330F0F401808381E0F50155
:1004000080831EC0BF86AE862A893B89821510F084
:1004100020E030E0EE85FF859081892F90E08223F7
:100420009323892B51F0F4018081F2018183888923
:1004300099890E945300F4011082EE85FF85108295
:100440000F5F1F4FF6E0EF0EF11C8FEF881A980A2E
:100450009FEFA91AB90A0430110509F08FCF7BCF9D
:04046000F894FFCF3E
:10046400020406080A0C0E10121416181A1C1E2078
:10047400222426282A2C2E30323436383A3C3E4068
:10048400424446484A4C4E50525456585A5C5E6058
:10049400626466686A6C6E70727476787A7C7E8048
:1004A40081838587898B8D8F91939597999B9D9F48
:1004B400A1A3A5A7A9ABADAFB1B3B5B7B9BBBDBF38
:1004C400C1C3C5C7C9CBCDCFD1D3D5D7D9DBDDDF28
:1004D400E1E3E5E7E9EBEDEFF1F3F5F7F9FBFDFF18
:1004E400FDFBF9F7F5F3F1EFEDEBE9E7E5E3E1DF28
:1004F400DDDBD9D7D5D3D1CFCDCBC9C7C5C3C1BF18
:10050400BDBBB9B7B5B3B1AFADABA9A7A5A3A19F07
:100514009D9B99979593918F8D8B898785838180F6
:100524007E7C7A78767472706E6C6A6866646260D7
:100534005E5C5A58565452504E4C4A4846444240C7
:100544003E3C3A38363432302E2C2A2826242220B7
:100554001E1C1A18161412100E0C0A0806040200A7
:100564000000000001010102020304050506070959
:100574000A0B0C0E0F1112141517191B1D1F212322
:1005840025282A2C2F313436393B3E414346494CE9
:100594004F5255585A5D6164676A6D707376797C01
:1005A400808386898C8F9295989B9EA2A5A7AAADDD
:1005B400B0B3B6B9BCBEC1C4C6C9CBCED0D3D5D7EF
:1005C400DADCDEE0E2E4E6E8EAEBEDEEF0F1F3F4A7
:1005D400F5F6F8F9FAFAFBFCFDFDFEFEFEFFFFFF5F
:1005E400FFFFFFFFFEFEFEFDFDFCFBFAFAF9F8F645
:1005F400F5F4F3F1F0EEEDEBEAE8E6E4E2E0DEDC5C
:10060400DAD7D5D3D0CECBC9C6C4C1BEBCB9B6B374
:10061400B0ADAAA7A5A29E9B9895928F8C8986833C
:10062400807C797673706D6A6764615D5A5855523F
:100634004F4C494643413E3B393634312F2C2A280E
:100644002523211F1D1B1917151412110F0E0C0B36
:100654000A0907060505040302020101010000005E
:00000001FF
