:100000000C9434000C9451000C9451000C94510049
:100010000C9451000C9451000C9451000C9451001C
:100020000C9451000C9451000C9451000C9451000C
:100030000C9451000C946B000C9451000C945100E2
:100040000C9451000C9451000C9451000C945100EC
:100050000C9451000C9451000C9451000C945100DC
:100060000C9451000C94510011241FBECFEFD8E026
:10007000DEBFCDBF13E0A0E0B1E0EAE5F3E002C0EF
:1000800005900D92A030B107D9F723E0A0E0B3E0CE
:1000900001C01D92A531B207E1F70E941F010C9427
:1000A000AB010C9400009C01220F331F220F331F61
:1000B000820F931FFC01EF5FFC4F81E080838091F2
:1000C0000003843020F48F5F80930003089584E060
:1000D0008093000308951F920F920FB60F92112480
:1000E0002F933F934F935F938F939F93AF93BF93C0
:1000F000EF93FF93E1E0F3E0838194819C012F5F14
:100100003F4F34832383DC01A050BF4F2C91808567
:100110009185AC014F5F5F4F51874087DC01A05054
:10012000BF4F8C9190E0820F911D25853685A901E6
:100130004F5F5F4F56874587D901A050BF4F2C9125
:10014000820F911D22893389A9014F5F5F4F538B25
:10015000428BF901E050FF4F2081820F911D2091C9
:100160000003233039F02430A9F02230B9F49595FA
:10017000879514C09C0135952795359527959595BC
:100180008795959587959595879595958795820FF0
:10019000931F04C0959587959595879580938800C2
:1001A000FF91EF91BF91AF919F918F915F914F918F
:1001B0003F912F910F900FBE0F901F901895ECE775
:1001C000F0E09081907F8F70892B8083EAE7F0E0E8
:1001D000808180648083808186FDFDCF809179005D
:1001E0000895E0E8F0E0808180688083E1E8F0E055
:1001F00080818A608083089580E680937C00EAE7AE
:10020000F0E0808187688083808180648083808142
:1002100086FDFDCF08958AB18F608AB9219A08952D
:10022000E1E0F3E081E090E0128210829483838326
:1002300011823596049681319105B1F70895CF93D7
:10024000DF93CDB7DEB72F970FB6F894DEBF0FBEA2
:10025000CDBF19821A821B821C821D821E821F82C0
:10026000188619861A861B861C860E94FC000E942E
:100270000B010E94F1000E94100166246394712C0E
:100280006E867F867E0189E0E80EF11C5E0195E0B6
:10029000A90EB11C0F2EF1E08F2EF3E09F2EF02D52
:1002A000FE0131966F0100E010E0802F202E1D87A7
:1002B0002701F7019081992359F09BB19301002EFA
:1002C00002C0220F331F0A94E2F7292B2BB90CC06E
:1002D0002BB1A301002E02C0440F551F0A94E2F770
:1002E000942F909592239BB9F60130800E94DF00F5
:1002F000F60181936F01823330F0F501808381E054
:10030000F201808318C02E853F85831510F020E010
:1003100030E0F2019081892F90E082239323892B92
:1003200041F0F5018081F4018183822D9D850E9439
:100330005300F20110820F5F1F4FFFEFEF1AFF0A09
:100340008FEFA81AB80A95E0890E911C04301105A8
:0A03500009F0ABCF97CFF894FFCF70
:10035A00808183848687898A8C8E8F9192949597DF
:10036A00989A9B9D9FA0A2A3A5A6A8A9ABACADAF46
:10037A00B0B2B3B5B6B8B9BABCBDBEC0C1C3C4C5C4
:10038A00C6C8C9CACCCDCECFD1D2D3D4D5D6D8D966
:10039A00DADBDCDDDEDFE0E1E2E3E4E5E6E7E8E93B
:1003AA00EAEBEBECEDEEEFEFF0F1F2F2F3F4F4F549
:1003BA00F5F6F7F7F8F8F9F9FAFAFAFBFBFCFCFCA0
:1003CA00FDFDFDFDFEFEFEFEFEFFFFFFFFFFFFFF40
:1003DA00FFFFFFFFFFFFFFFEFEFEFEFEFEFDFDFD2F
:1003EA00FCFCFCFBFBFBFAFAF9F9F8F8F7F7F6F66E
:1003FA00F5F4F4F3F3F2F1F0F0EFEEEDEDECEBEAF5
:10040A00E9E8E7E7E6E5E4E3E2E1E0DFDEDDDBDABF
:10041A00D9D8D7D6D5D4D2D1D0CFCDCCCBCAC8C7CC
:10042A00C6C4C3C2C0BFBEBCBBBAB8B7B5B4B3B109
:10043A00B0AEADABAAA8A7A5A4A2A19F9E9C9B996A
:10044A009896959391908E8D8B8A888785838280E2
:10045A007F7D7C7A7877757472716F6E6C6A696762
:10046A0066646361605E5D5B5A5857555452514FDA
:10047A004E4C4B4A484745444341403F3D3C3B393B
:10048A00383735343332302F2E2D2B2A2928272678
:10049A0025242221201F1E1D1C1B1A191818171685
:1004AA00151413121211100F0F0E0D0C0C0B0B0A50
:1004BA0009090808070706060505040404030303D7
:1004CA000202020101010101010000000000000016
:1004DA000000000000000001010101010202020205
:1004EA000303030404050505060607070808090AA5
:1004FA000A0B0B0C0D0D0E0F1010111213141415FC
:10050A00161718191A1B1C1D1E1F20212223242509
:10051A002627292A2B2C2D2E3031323335363739DE
:10052A003A3B3C3E3F414243454647494A4C4D4F80
:10053A00505253545657595A5C5D5F6062646567FE
:10054A00686A6B6D6E707173757678797B7C7E8064
:00000001FF
