:100000000C94B3040C94D0040C94D0040C94D0043D
:100010000C94D0040C94D0040C94D0040C94D00410
:100020000C94D0040C94D0040C94D0040C94D00400
:100030000C94D0040C94D2040C94D0040C94D004EE
:100040000C94D0040C94D0040C94D0040C94D004E0
:100050000C94D0040C94D0040C94D0040C94D004D0
:100060000C94D0040C94D0046462615F5E5C5B5AB3
:10007000585756545352504F4E4D4B4A4948474695
:100080004544434241403F3E3D3C3B3A3938373698
:1000900036353433323231302F2F2E2D2C2C2B2A63
:1000A0002A292828272726252524242323222121FD
:1000B00020201F1F1E1E1E1D1D1C1C1B1B1A1A1A72
:1000C00019191918181717171616161515151414C7
:1000D0001413131312121212111111111010101007
:1000E0000F0F0F0F0E0E0E0E0E0D0D0D0D0D0C0C35
:1000F0000C0C0C0B0B0B0B0B0B0A0A0A0A0A0A0955
:10010000090909090909080808080808080807076B
:100110000707070707070706060606060606060678
:10012000060605050505050505050505050505047E
:100130000404040404040404040404040404040380
:10014000030303030303030303030303030303037F
:10015000030303030302020202020202020202027A
:100160000202020202020200646464646464646461
:10017000646464646464646464646464646464643F
:10018000646464646464646464646464646464642F
:10019000646464646464646464646464646464641F
:1001A000646464646464646464646464646464640F
:1001B00064646464646464646464646464646464FF
:1001C00064646464646464646464646464646464EF
:1001D00064646464646464646464646464646464DF
:1001E00064646464646464646464646464646464CF
:1001F00064646464646464646464646464646464BF
:1002000064646464646464646464646464646464AE
:10021000646464646464646464646464646464649E
:10022000646464646464646464646464646464648E
:10023000646464646464646464646464646464647E
:10024000646464646464646464646464646464646E
:10025000646464646464646464646464646464645E
:1002600064646464646464647E7E7E7F7F7F7F7F79
:100270007F7F7F7F7E7E7E7E7E7E7E7E7D7D7D7D9E
:100280007D7D7D7D7C7C7C7C7C7C7C7C7B7B7B7BAE
:100290007B7B7B7B7A7A7A7A7A7A7A7A79797979BE
:1002A00079797979787878787878787877777777CE
:1002B00077777777767676767676767675757575DE
:1002C00075757575747474747474747473737373EE
:1002D00073737373727272727272727271717171FE
:1002E0007171717170707070707070706F6F6F6F0E
:1002F0006F6F6F6F6F6E6E6E6E6E6E6E6E6D6D6D1C
:100300006D6D6D6D6D6C6C6C6C6C6C6C6C6B6B6B2B
:100310006B6B6B6B6B6A6A6A6A6A6A6A6A6969693B
:10032000696969696968686868686868686767674B
:10033000676767676766666666666666666565655B
:10034000656565656564646464646464646363636B
:10035000636363636362626262626262626161617B
:100360006161616161606060000205070A0C0E1046
:10037000121417191B1C1E2022242627292B2C2E71
:10038000303133343537383A3B3C3E3F40414344CB
:1003900045464748494A4B4C4D4E4F505152535495
:1003A000545556575858595A5B5B5C5D5D5E5F5FAC
:1003B00060606162626363646465656666676768FE
:1003C0006869696A6A6A6B6B6C6C6C6D6D6D6E6E78
:1003D0006E6F6F6F70707070717171727272727314
:1003E00073737374747474747575757575767676C5
:1003F0007676767777777777777878787878787889
:100400007879797979797979797A7A7A7A7A7A7A56
:100410007A7A7A7A7B7B7B7B7B7B7B7B7B7B7B7B30
:100420007C7C7C7C7C7C7C7C7C7C7C7C7C7C7C7C0C
:100430007C7C7D7D7D7D7D7D7D7D7D7D7D7D7D7DEE
:100440007D7D7D7D7D7D7D7D7D7D7D7D7E7E7E7ED8
:100450007E7E7E7E7E7E7E7E7E7E7E7E7E7E7E7EBC
:100460007E7E7E7E7E7E7E7E000306090C0F121548
:10047000181B1E2124272A2D303336393B3E414399
:1004800046494B4E50525557595B5E6062646667F1
:10049000696B6C6E7071727475767778797A7B7B24
:1004A0007C7D7D7E7E7E7E7E7F7E7E7E7E7E7D7D71
:1004B0007C7B7B7A7978777675747271706E6C6BF1
:1004C0006967666462605E5B59575552504E4B498E
:1004D0004643413E3B393633302D2A2724211E1B0B
:1004E0001815120F0C09060300FDFAF7F4F1EEEBF4
:1004F000E8E5E2DFDCD9D6D3D0CDCAC7C5C2BFBDDF
:10050000BAB7B5B2B0AEABA9A7A5A2A09E9C9A9966
:1005100097959492908F8E8C8B8A89888786858513
:1005200084838382828282828182828282828383A6
:10053000848585868788898A8B8C8E8F9092949506
:1005400097999A9C9EA0A2A5A7A9ABAEB0B2B5B749
:10055000BABDBFC2C5C7CACDD0D3D6D9DCDFE2E5AC
:10056000E8EBEEF1F4F7FAFCFFFDFBF9F7F5F3F138
:10057000EEEBE8E4E0DCD8D4D1CDCAC7C3C0BDBA45
:10058000B8B5B2AFADACACABAAAAA9A8A7A7A6A5AF
:10059000A4A3A3A2A1A09F9E9D9C9B9A9999989782
:1005A000969594939291908F8E8E8D8C8B8A89885C
:1005B0008888878786868585858687898A8C8D8EBB
:1005C0008E8F909091929394959698999A9B9C9DDA
:1005D0009E9FA0A1A2A3A4A5A6A7A8AAABACADAEBE
:1005E000B0B1B2B4B5B6B7B9BABBBDBEC0C1C3C471
:1005F000C6C7C9CACCCDCFD0D2D4D5D7D8DADBDDE7
:10060000DEE0E1E3E4E6E7E9EBECEEEFF1F2F4F54E
:10061000F7F8FAFBFDFE0001020406080A0C0F11B0
:10062000131517191C1E212325282A2D3032353881
:100630003C3F4245484A4D505255585B5D606265AB
:10064000686A6D6F7172747577787A7B7C7E7F7F54
:100650007F7F7F7F7F7F7F7F7F7F7F7F7F7F7F7FAA
:100660007F7F7F7F7F7F7F7F7F7F7F7F7F7F7F7F9A
:100670007F7F7F7F7F7F7F7F7F7F7F7E7D7B79779F
:10068000757472706F6D6B696866656361605E5DDD
:100690005C5A59585655545351504F4E4D4C4B4A35
:1006A0004948474645444241403F3E3C3B3A383743
:1006B000353432312F2E2D2B2A2827252422211F95
:1006C0001E1C1B191816151312100F0D0C0A090702
:1006D000060403020000FEFDFCFAF9F7F6F5F3F25A
:1006E000F0EFEEECEBE9E8E6E5E3E1DFDDDBD8D6C1
:1006F000D3CFCCC9C6C2BFBCB9B5B2AFACA9A6A452
:10070000A19F9C9B99989795949391908F8D8C8B9A
:100710008A8988878685848382828181818181819B
:1007200081818181818181818181818181818181B9
:1007300081818181818181818181818181818181A9
:100740008181818181818181818181828485878983
:100750008B8D8E9092949698999B9D9FA1A3A4A611
:10076000A8AAACAEB0B1B3041C2C3D4F687E75692D
:10077000685A585A3302DCAB95A3A8A5AFC2EA1851
:100780002E3441494443443B2809E4C7B4A5A2A5FB
:10079000ACC6E9092532313541484D5256595342CC
:1007A0003C3E2F1D190DEDD7D7CCB2ACB8BABFCF98
:1007B000CBBCC3D0C7BCCDE3DBC2B8C2D3D2BAAFC7
:1007C000BCC8D3E0F20D202634352225383E4954EA
:1007D0004B4641291200DDC7CED1CDE00C343B3071
:1007E000353D35323E535F573F230E141E0EF2DF68
:1007F000DCD8C4B9BEB9ACADC5F2102750593A33F4
:100800002F0CFBF7DDCAD5EC00132526190EFBDEF5
:10081000DDF3FCF3E8E0DBD7D7E2F2ECD4D7F71353
:10082000293C4C555255583F27291C030406020FFA
:10083000170F06FDF2F2F3EEF2FAF2E7F0F9F2EC3E
:10084000EDE7D5C0B6B9C1C5C8D9FB13212B2F34EC
:100850002E13FEF5ECEF03192005DDD2D7CFC3B57B
:10086000A7A6B2C3DFFD153144423F433F362B0AF2
:10087000E7D4C2B2B4BCC5D6E6EFF1EDE8F0FE0AAB
:100880001A2A3336383B414A52534A494E493C2F83
:100890001B0B00E7CFCDCAB9A7A2A3A4AECAEB0336
:1008A0001221291D16252D2B313329273238362FB9
:1008B00022171B211D222D2713FBE5D8CCC2BBAC70
:1008C0009A979A9699B7E70E335B66534640382E4F
:1008D0001F0BF9E7DAD0C6BEB6AA9D97A7BCC9E13F
:1008E000001D4160655F5A4F41331E08FEF9EBD38E
:1008F000BDB8B2A3A0A8A2999DA2A8ACAEC6D7D0FD
:10090000E00512122036474D514F3F3C4950585A8E
:100910005049391E1B17FEF4EDD1C9DFF0F3EEE6A6
:10092000E7E9DECECCD6E1ECF4F6F9F4EDFB1422E7
:10093000313D2F150F161817170E02000403F0D7BC
:10094000DBF302101F1D151A1A12121C211C1310A2
:100950000AFBEAE2E2E1DAD6DADADCE3E6E6DCCD6B
:10096000CCD1CFDEFD1111241FBECFEFD8E0DEBF0A
:10097000CDBF11E0A0E0B1E0E8E6FEE002C00590E6
:100980000D92A230B107D9F721E0A2E0B1E001C099
:100990001D92AF32B207E1F70E9496060C9432071F
:1009A0000C9400001F920F920FB60F9211242F93F8
:1009B0003F934F935F936F937F938F939F93AF93E7
:1009C000BF93CF93EF93FF93B89B06C0B99A8091E2
:1009D00002018F5F80930201E0910201F0E0E8598B
:1009E000FB4F2081259525952595809100019091BB
:1009F0000101820F911D27FD9A95909387008093A6
:100A00008600A3E0B1E01296ED91FC911397F69564
:100A1000E795F695E795E859FA4F74911596ED919B
:100A2000FC9116970024EE0FFF1F001CEE0FFF1F16
:100A3000001CEF2FF02D18968D919C911997E80FBF
:100A4000F91FC4911C96ED91FC911D97F695E795C1
:100A5000F695E795E959F84F54911F96ED91FC9161
:100A600050970024EE0FFF1F001CEE0FFF1F001C0D
:100A7000EF2FF02D52968D919C915397E80FF91F0F
:100A800064915696ED91FC915797F695E795F695FA
:100A9000E795E859FA4F34915996ED91FC915A97A0
:100AA0000024EE0FFF1F001CEE0FFF1F001CEF2F96
:100AB000F02D5C968D919C915D97E80FF91F449104
:100AC0009096ED91FC919197F695E795F695E795BF
:100AD000E859FA4F94919396ED91FC9194970024E4
:100AE000EE0FFF1F001CEE0FFF1F001CEF2FF02D5D
:100AF00096960D90BC91A02DEA0FFB1FE4917C020D
:100B0000D0011124AA0FAB2FAA1FBB0B5602B001B4
:100B10001124660F672F661F770B6A0F7B1F340245
:100B2000A0011124440F452F441F550B9B01240F96
:100B3000351F9E02F0011124EE0FEF2FEE1FFF0B69
:100B4000C9018E0F9F1F959587959595879581581B
:100B50009F4F80938800E3E0F1E04BE251E0808119
:100B60008823B1F08181248190E0BC01620F711D66
:100B700022813381260F371F3770338322832781E9
:100B8000820F911D25813681820F931F9683858365
:100B90003A96E417F50719F7FF91EF91CF91BF91BE
:100BA000AF919F918F917F916F915F914F913F9105
:100BB0002F910F900FBE0F901F901895FC01808110
:100BC000811103C0168215820FC0823059F425812D
:100BD00036812F77332780E890E0821B930B968332
:100BE000858302C01682158288E693E0918780870C
:100BF00081E0808380912B0187830895FC01168218
:100C000015828081813051F488E692E09187808757
:100C100082E0808380912C0187830895823051F493
:100C200088E691E09187808783E0808380912D0121
:100C300087830895833051F488E690E09187808718
:100C400084E0808380912E0187830895843021F48D
:100C500010821182138212820895ECE7F0E09081F5
:100C6000907F8F70892B8083EAE7F0E08081806439
:100C70008083808186FDFDCF809179000895E0EB2F
:100C8000F0E0808182608083E1EBF0E0808185602C
:100C9000808380E48093B300E0E8F0E080818268A4
:100CA0008083E1E8F0E0808189618083EFE6F0E015
:100CB00080818160808380910001909101019093F7
:100CC0008700809386008FEF90E090938900809357
:100CD00088007894089580E680937C00EAE7F0E04D
:100CE000808187688083808180648083808186FDA5
:100CF000FDCF08958AB18F608AB9219A0895E3E003
:100D0000F1E081E0138212821082848311821682C4
:100D1000158217823A968E5F8930A1F7EBE2F1E0F7
:100D200081E080838183828383830895CF93DF93DF
:100D3000CDB7DEB760970FB6F894DEBF0FBECDBF5C
:100D400019821A821B821C821D821E821F821886B3
:100D500019861A861B861C860E946B060E947A06DC
:100D60000E943F060E947F0666246394712C6F8662
:100D7000788A6E0189E0C80ED11C4E0195E0890E7B
:100D8000911C0F2EF3E0EF2EF1E0FF2EF02DFE016F
:100D900031965F0100E010E0302E2601F6018081DF
:100DA000882359F02BB1C301002E02C0880F991F70
:100DB0000A94E2F7822B8BB90CC09BB19301002EF1
:100DC00002C0220F331F0A94E2F7822F80958923F5
:100DD0008BB9FE86ED86F7018581968195FF06C069
:100DE0008081882319F0C7010E94FE05F50120804B
:100DF000832D0E942D06F50181935F01803130F033
:100E0000F401808381E0F20180831CC02F85388942
:100E1000821510F020E030E0F2019081892F90E0FF
:100E200082239323892B61F0F40180818695869536
:100E3000ED85FE858183CF010E94DE05F4011082DD
:100E4000F20110820F5F1F4FFFEFCF1ADF0A8FEF03
:100E5000881A980A9AE0E90EF11C0430110509F08D
:080E60009BCF87CFF894FFCF70
:020E68006B011C
:00000001FF
