:100000000C9434000C9449000C9449000C94490061
:100010000C9449000C9449000C9449000C9449003C
:100020000C9449000C9449000C9449000C9449002C
:100030000C9449000C944B000C9449000C9449001A
:100040000C9449000C9449000C9449000C9449000C
:100050000C9449000C9449000C9449000C944900FC
:100060000C9449000C94490011241FBECFEFD8E036
:10007000DEBFCDBF11E0A0E0B1E0E2EAF1E002C0F6
:1000800005900D92A030B107D9F70E9486000C941C
:10009000CF000C9400001F920F920FB60F92112404
:1000A0000F900FBE0F901F901895ECE7F0E0908135
:1000B000907F8F70892B8083EAE7F0E080818064F5
:1000C0008083808186FDFDCF809179000895E0E8EE
:1000D000F0E0808180688083E1E8F0E080818A60E0
:1000E0008083089580E680937C00EAE7F0E08081D9
:1000F00087688083808180648083808186FDFDCFD6
:1001000008958AB18F608AB9219A0895CF93DF93B9
:1001100000D000D0CDB7DEB719821A821B821C82B4
:100120000E9472000E9481000E946700AA24A3948A
:10013000B12C99249394CE0101967C0100E010E04B
:10014000802F6701F7019081992359F09BB19501A8
:10015000002E02C0220F331F0A94E2F7292B2BB97D
:100160000CC02BB1A501002E02C0440F551F0A94EC
:10017000E2F7942F909592239BB90E945500823309
:1001800018F0F601908202C0F60110820F5F1F4F37
:10019000FFEFEF1AFF0A0430110591F6CCCFF89467
:0201A000FFCF8F
:00000001FF
