S013000054616B7061645F333238502E7372656370
S11300000C94B2060C94CF060C94CF060C94CF0635
S11300100C94CF060C94CF060C94CF060C94CF0608
S11300200C94CF060C94CF060C94CF060C94CF06F8
S11300300C94CF060C94D1060C94CF060C94CF06E6
S11300400C94CF060C94CF060C94CF060C94CF06D8
S11300500C94CF060C94CF060C94CF060C94CF06C8
S11300600C94CF060C94CF066462615F5E5C5B5AAD
S1130070585756545352504F4E4D4B4A4948474691
S11300804544434241403F3E3D3C3B3A3938373694
S113009036353433323231302F2F2E2D2C2C2B2A5F
S11300A02A292828272726252524242323222121F9
S11300B020201F1F1E1E1E1D1D1C1C1B1B1A1A1A6E
S11300C019191918181717171616161515151414C3
S11300D01413131312121212111111111010101003
S11300E00F0F0F0F0E0E0E0E0E0D0D0D0D0D0C0C31
S11300F00C0C0C0B0B0B0B0B0B0A0A0A0A0A0A0951
S11301000909090909090808080808080808070767
S11301100707070707070706060606060606060674
S1130120060605050505050505050505050505047A
S1130130040404040404040404040404040404037C
S1130140030303030303030303030303030303037B
S11301500303030303020202020202020202020276
S1130160020202020202020064646464646464645D
S1130170646464646464646464646464646464643B
S1130180646464646464646464646464646464642B
S1130190646464646464646464646464646464641B
S11301A0646464646464646464646464646464640B
S11301B064646464646464646464646464646464FB
S11301C064646464646464646464646464646464EB
S11301D064646464646464646464646464646464DB
S11301E064646464646464646464646464646464CB
S11301F064646464646464646464646464646464BB
S113020064646464646464646464646464646464AA
S1130210646464646464646464646464646464649A
S1130220646464646464646464646464646464648A
S1130230646464646464646464646464646464647A
S1130240646464646464646464646464646464646A
S1130250646464646464646464646464646464645A
S113026064646464646464647E7E7E7F7F7F7F7F75
S11302707F7F7F7F7E7E7E7E7E7E7E7E7D7D7D7D9A
S11302807D7D7D7D7C7C7C7C7C7C7C7C7B7B7B7BAA
S11302907B7B7B7B7A7A7A7A7A7A7A7A79797979BA
S11302A079797979787878787878787877777777CA
S11302B077777777767676767676767675757575DA
S11302C075757575747474747474747473737373EA
S11302D073737373727272727272727271717171FA
S11302E07171717170707070707070706F6F6F6F0A
S11302F06F6F6F6F6F6E6E6E6E6E6E6E6E6D6D6D18
S11303006D6D6D6D6D6C6C6C6C6C6C6C6C6B6B6B27
S11303106B6B6B6B6B6A6A6A6A6A6A6A6A69696937
S11303206969696969686868686868686867676747
S11303306767676767666666666666666665656557
S11303406565656565646464646464646463636367
S11303506363636363626262626262626261616177
S11303606161616161606060000205070A0C0E1042
S1130370121417191B1C1E2022242627292B2C2E6D
S1130380303133343537383A3B3C3E3F40414344C7
S113039045464748494A4B4C4D4E4F505152535491
S11303A0545556575858595A5B5B5C5D5D5E5F5FA8
S11303B060606162626363646465656666676768FA
S11303C06869696A6A6A6B6B6C6C6C6D6D6D6E6E74
S11303D06E6F6F6F70707070717171727272727310
S11303E073737374747474747575757575767676C1
S11303F07676767777777777777878787878787885
S11304007879797979797979797A7A7A7A7A7A7A52
S11304107A7A7A7A7B7B7B7B7B7B7B7B7B7B7B7B2C
S11304207C7C7C7C7C7C7C7C7C7C7C7C7C7C7C7C08
S11304307C7C7D7D7D7D7D7D7D7D7D7D7D7D7D7DEA
S11304407D7D7D7D7D7D7D7D7D7D7D7D7E7E7E7ED4
S11304507E7E7E7E7E7E7E7E7E7E7E7E7E7E7E7EB8
S11304607E7E7E7E7E7E7E7E000306090C0F121544
S1130470181B1E2124272A2D303336393B3E414395
S113048046494B4E50525557595B5E6062646667ED
S1130490696B6C6E7071727475767778797A7B7B20
S11304A07C7D7D7E7E7E7E7E7F7E7E7E7E7E7D7D6D
S11304B07C7B7B7A7978777675747271706E6C6BED
S11304C06967666462605E5B59575552504E4B498A
S11304D04643413E3B393633302D2A2724211E1B07
S11304E01815120F0C09060300FDFAF7F4F1EEEBF0
S11304F0E8E5E2DFDCD9D6D3D0CDCAC7C5C2BFBDDB
S1130500BAB7B5B2B0AEABA9A7A5A2A09E9C9A9962
S113051097959492908F8E8C8B8A8988878685850F
S113052084838382828282828182828282828383A2
S1130530848585868788898A8B8C8E8F9092949502
S113054097999A9C9EA0A2A5A7A9ABAEB0B2B5B745
S1130550BABDBFC2C5C7CACDD0D3D6D9DCDFE2E5A8
S1130560E8EBEEF1F4F7FAFC0000FEFBF8F6F5F523
S1130570F6F6F6F5F4F3F2F3F3F4F5F7F8F9F9F91E
S1130580F8F7F5F4F2EFECE8E5E2E2E2E5E8E9EAAF
S1130590E9E7E3DFDBD6D2CDC9C6C3C1C0BFBEBD68
S11305A0BCBBBBBBBBBCBEC1C3C6C8CACCCDCECF13
S11305B0D0D0CFCECBC7C4C1BFBEBDBEBEBEBDBBF7
S11305C0B9B6B4B3B2B1AFAFAFB2B5B7B8B8B7B6E6
S11305D0B5B3B1AEABA7A29E9A9693919090919227
S11305E09293949392908C88858484848587888957
S11305F08B8C8D8E8D8A88858382838486888A8B72
S11306008C8D8B88858181818181818181818388A1
S11306108D949BA1A8AEB2B7BABCBDBEBEBFBFC0CD
S1130620C1C1C3C4C6C7C9CBCED2D6DADDE0E2E4C9
S1130630E6E9ECEFF2F4F7FAFCFF0001020200FE37
S1130640FBF8F6F4F4F4F6F8FBFE000203040607E4
S11306500A0D101316181B1D202225292C2F3336A2
S1130660393B3C3C3C3B3938363535353535363706
S1130670383A3C3E41444647474646454443434353
S11306804547494B4D4F50504F4F4E4D4D4E4F5097
S11306905355585B5D5F6163656666666564646552
S11306A066686A6C6E707172727271706F6D6A676F
S11306B064615E5B5855535251504F4F50515355DE
S11306C0585A5C5E5F5F5F5D5B5A585858595A5B75
S11306D05B5B5A58575553514F4D4C4B494848480A
S11306E049494948464544434241403F3D3C3C3CDE
S11306F03D3E40424445474849494745413C3733DC
S1130700302C29262422201F1D1B1A181613110F02
S11307100E0E0F10111212110F0D0A070300FEFB2B
S1130720F8F6F4F3F3F4F5F6F7F8F8F7F6F3F0EC7B
S1130730E8E4E1DEDCDAD6D2CDC8C3BEBAB7B5B3DD
S1130740B4B6B8BBBDC0C2C4C4C3C2C1C0C1C2C4B4
S1130750C6C9CBCDCECECECDCCCAC9C8C7C5C5C4FB
S1130760C3C3C4C4C5C5C40029737A1AA589A0DE4D
S11307704D7F7F7838E8BF93819EA8A5AEA691925D
S1130780B9E9F1E6EBF90C17101C3F5754381A1A63
S113079033526D6D1DAB868F8199D6F2092B43556B
S11307A038F4D5D8E2002C506166736C504C545523
S11307B059554D4F4E5055524C360CDBB3C9164467
S11307C04B58563F30304567765B1DDDAF99A6BD6B
S11307D0AF97ACEF3246281B313C35353C44454796
S11307E05B5A26EDBD9BA8B99C8895A6BED3E0E4D0
S11307F0D3C0BACC257F7F685C3B2836453DF89052
S1130800818181BD245E666F76664B373541423CFB
S11308103C2E1904CE9CABCFD2BDA18884A0B09449
S1130820A606434A58533A332D2C393F2E07ECF28F
S1130830FB00162C2A12F5DEC2BDE0F1D3A7878B8C
S1130840AAB9B3A18F96A2A4ADB7BFC6B497919B22
S1130850C8235D4F3E3E240C1B1EE9B0B4D4CDB971
S1130860BAB8BBBDA3A4C3C1E13859525535FCC4C1
S11308709EA3ADABD3010D0B040F3C585247414B23
S1130880565661767F7F46D19B97849DFD43526186
S1130890746C523B2F2F3C4A3D10E8E917485C52D8
S11308A014BEA1A89996A1BB136D7D7F7F7D6B3685
S11308B0DCAEC8FD35676E31EBD2D8F91BF19C81F3
S11308C08EC2080ED3BBDAFB0A1726303540410D21
S11308D0BA96A7B4BED8E2C7A8A8BAC0D51A5A5EB9
S11308E0494A58686D40E9A798998C81AC0E4B4DE4
S11308F024C58181A0C7DDC8C7F208214E5F5C5BB7
S11309005E6E776E603902DEC2B4B7A690A0CAE507
S1130910EA09547D6B5D6060686455584A1E1A3E4E
S11309205139EBA0ABE3071F2100DFDD0525FAB940
S1130930AEC5E4ECC09BA8B3A8A9BBE83345F8B5A1
S1130940ADB5ED49695F5F524248596C52FBB9B489
S1130950D915373437332632443B16D08982A4ABB9
S1130960A7AE9697F94400FDFBF9F7F5F3F1EEEB2A
S1130970E8E4E0DCD8D4D1CDCAC7C3C0BDBAB8B5A9
S1130980B2AFADACACABAAAAA9A8A7A7A6A5A4A3CD
S1130990A3A2A1A09F9E9D9C9B9A99999897969596
S11309A094939291908F8E8E8D8C8B8A898888886F
S11309B0878786868585858687898A8C8D8E8E8FA6
S11309C0909091929394959698999A9B9C9D9E9FB2
S11309D0A0A1A2A3A4A5A6A7A8AAABACADAEB0B192
S11309E0B2B4B5B6B7B9BABBBDBEC0C1C3C4C6C73D
S11309F0C9CACCCDCFD0D2D4D5D7D8DADBDDDEE0AE
S1130A00E1E3E4E6E7E9EBECEEEFF1F2F4F5F7F815
S1130A10FAFBFDFE0001020406080A0C0F1113156F
S1130A2017191C1E212325282A2D303235383C3F26
S1130A304245484A4D505255585B5D606265686A4C
S1130A406D6F7172747577787A7B7C7E7F7F7F7F20
S1130A507F7F7F7F7F7F7F7F7F7F7F7F7F7F7F7FA2
S1130A607F7F7F7F7F7F7F7F7F7F7F7F7F7F7F7F92
S1130A707F7F7F7F7F7F7F7F7F7E7D7B79777574AC
S1130A8072706F6D6B696866656361605E5D5C5A08
S1130A9059585655545351504F4E4D4C4B4A494852
S1130AA0474645444241403F3E3C3B3A3837353463
S1130AB032312F2E2D2B2A2827252422211F1E1CBC
S1130AC01B191816151312100F0D0C0A090706042A
S1130AD003020000FEFDFCFAF9F7F6F5F3F2F0EF7D
S1130AE0EEECEBE9E8E6E5E3E1DFDDDBD8D6D3CFF6
S1130AF0CCC9C6C2BFBCB9B5B2AFACA9A6A4A19FAC
S1130B009C9B99989795949391908F8D8C8B8A89BF
S1130B1088878685848382828181818181818181A4
S1130B2081818181818181818181818181818181B1
S1130B3081818181818181818181818181818181A1
S1130B4081818181818181818182848587898B8D65
S1130B508E9092949698999B9D9FA1A3A4A6A8AACF
S1130B60ACAEB0B1B3001C2C3D4F687E7569685AB9
S1130B70585A3302DCAB95A3A8A5AFC2EA182E34A9
S1130B8041494443443B2809E4C7B4A5A2A5ACC6E3
S1130B90E9092532313541484D52565953423C3EBC
S1130BA02F1D190DEDD7D7CCB2ACB8BABFCFCBBC83
S1130BB0C3D0C7BCCDE3DBC2B8C2D3D2BAAFBCC8C2
S1130BC0D3E0F20D202634352225383E49544B46D5
S1130BD041291200DDC7CED1CDE00C343B30353D88
S1130BE035323E535F573F230E141E0EF2DFDCD81E
S1130BF0C4B9BEB9ACADC5F2102750593A332F0C65
S1130C00FBF7DDCAD5EC00132526190EFBDEDDF358
S1130C10FCF3E8E0DBD7D7E2F2ECD4D7F713293CB6
S1130C204C555255583F27291C030406020F170F31
S1130C3006FDF2F2F3EEF2FAF2E7F0F9F2ECEDE788
S1130C40D5C0B6B9C1C5C8D9FB13212B2F342E1377
S1130C50FEF5ECEF03192005DDD2D7CFC3B5A7A667
S1130C60B2C3DFFD153144423F433F362B0AE7D47C
S1130C70C2B2B4BCC5D6E6EFF1EDE8F0FE0A1A2A1A
S1130C803336383B414A52534A494E493C2F1B0B99
S1130C9000E7CFCDCAB9A7A2A3A4AECAEB03122121
S1130CA0291D16252D2B313329273238362F2217AB
S1130CB01B211D222D2713FBE5D8CCC2BBAC9A9770
S1130CC09A9699B7E70E335B66534640382E1F0B4E
S1130CD0F9E7DAD0C6BEB6AA9D97A7BCC9E1001D44
S1130CE04160655F5A4F41331E08FEF9EBD3BDB82E
S1130CF0B2A3A0A8A2999DA2A8ACAEC6D7D0E00585
S1130D0012122036474D514F3F3C4950585A5049D2
S1130D10391E1B17FEF4EDD1C9DFF0F3EEE6E7E967
S1130D20DECECCD6E1ECF4F6F9F4EDFB1422313D41
S1130D302F150F161817170E02000403F0D7DBF354
S1130D4002101F1D151A1A12121C211C13100AFB63
S1130D50EAE2E2E1DAD6DADADCE3E6E6DCCDCCD1CB
S1130D60CFDEFD1111241FBECFEFD8E0DEBFCDBF13
S1130D7011E0A0E0B1E0ECE5F2E102C005900D92D3
S1130D80A230B107D9F721E0A2E0B1E001C01D9281
S1130D90AF32B207E1F70E9495080C942C090C9429
S1130DA000001F920F920FB60F921124EF92FF9240
S1130DB01F932F933F934F935F936F937F938F93DF
S1130DC09F93AF93BF93CF93DF93EF93FF93B89B1E
S1130DD006C0B99A809102018F5F80930201E0916D
S1130DE00201F0E0E859FB4F2081259525952595D2
S1130DF08091000190910101820F911D27FD9A9528
S1130E000F2EF6E8EF2EF12CF02DE701998388835D
S1130E10C3E0D1E0EA81FB81F695E795F695E79585
S1130E20EA59F64FB491ED81FE81EE0FEF2FEE1FDC
S1130E30FF0BF19588859985E80FF91F1491EC85CE
S1130E40FD85F695E795F695E795E959F84F5491A0
S1130E50EF85F889EE0FEF2FEE1FFF0BF1958A89CE
S1130E609B89E80FF91FA491EE89FF89F695E79510
S1130E70F695E795EB59F44F3491E98DFA8DEE0F21
S1130E80EF2FEE1FFF0BF1958C8D9D8DE80FF91F51
S1130E904491E8A1F9A1F695E795F695E795E85907
S1130EA0FA4F9491EBA1FCA1EE0FEF2FEE1FFF0B75
S1130EB0F1956EA17FA1E60FF71FE491E701688128
S1130EC07981B102E0011124CC0FCD2FCC1FDD0BB1
S1130ED05A02D0011124AA0FAB2FAA1FBB0BAC0FCF
S1130EE0BD1F3402A0011124440F452F441F550B8C
S1130EF09D01240F351F9E02F0011124EE0FEF2FE8
S1130F00EE1FFF0BC9018E0F9F1F95958795959531
S1130F10879581589F4F8617970728F080918800FE
S1130F209091890001979093890080938800E3E071
S1130F30F1E04BE251E08081882399F024818181A2
S1130F4090E0820F911D22813381820F931F97704D
S1130F5093838283278185819681820F911D968355
S1130F6085833A96E417F50731F7FF91EF91DF9106
S1130F70CF91BF91AF919F918F917F916F915F912D
S1130F804F913F912F911F91FF90EF900F900FBEC3
S1130F900F901F901895FC018081811103C0168267
S1130FA015820FC0823059F4258136812F7733277B
S1130FB080E890E0821B930B9683858302C016829F
S1130FC0158288E693E09187808781E08083909101
S1130FD02B018181890F87830895FC011682158274
S1130FE08081813061F488E692E09187808782E095
S1130FF0808390912C018181890F878308958230A9
S113100051F488E691E09187808783E08083809122
S11310102D0187830895833051F488E690E0918709
S1131020808784E0808380912E01878308958430B3
S113103021F410821182138212820895ECE7F0E009
S11310409081907F94609083EAE7F0E090819064CF
S11310509083908196FDFDCFECE7F0E09081907F46
S11310608F70892B8083EAE7F0E08081806480833D
S1131070808186FDFDCF809179000895E0EBF0E05A
S1131080808182608083E1EBF0E0808185608083F1
S113109080E48093B300E0E8F0E08081826880839C
S11310A0E1E8F0E0808189618083EFE6F0E080810F
S11310B08160808380910001909101019093870069
S11310C0809386008FEF90E090938900809388004E
S11310D07894089580E680937C00EAE7F0E08081CC
S11310E087688083808180648083808186FDFDCFD2
S11310F008958AB18F608AB9219A0895E3E0F1E0F6
S113110081E01382128210828483118216821582F6
S113111017823A968E5F8930A1F7EBE2F1E081E025
S113112080838183828383830895CF93DF93CDB7B4
S1131130DEB72C970FB6F894DEBF0FBECDBF198271
S11311401A821B821C821D821E821F8218860E94A4
S11311506A080E9479080E943E080E947E0888243A
S11311608394912C222423948B869C866E0165E0C3
S1131170C60ED11CCE0101965C010F2EF3E0EF2EBA
S1131180F1E0FF2EF02D00E010E0302E3601F601E4
S11311908081882359F02BB1C401002E02C0880F2E
S11311A0991F0A94E2F7822B8BB90CC09BB194016E
S11311B0002E02C0220F331F0A94E2F7822F80957B
S11311C089238BB92701F7018581968196FF06C093
S11311D08081882319F0C7010E94ED07832D0E94A6
S11311E01E08813128F0F5018083F301208224C098
S11311F0BA86A986F5014081242F30E0B901681B25
S113120071092B853C856B30710514F420E030E0C6
S1131210F3019081892F90E082239323892B61F03D
S113122046954695F2014183C2010E94CB07E985A8
S1131230FA851082F30110820F5F1F4FFFEFCF1A60
S1131240DF0A6FEFA61AB60A7AE0E70EF11C043043
S10F1250110509F09ACF8ACFF894FFCF63
S105125C6B0120
S9030000FC
