:100000000C9475000C9492000C9492000C94920045
:100010000C9492000C9492000C9492000C94920018
:100020000C9492000C9492000C9492000C94920008
:100030000C9492000C9428010C9492000C94920061
:100040000C9492000C9492000C9492000C949200E8
:100050000C9492000C9492000C9492000C949200D8
:100060000C9492000C94920007634236B79BD8A779
:100070001A39685618AEBAAB558C1D3CB7CC5763CD
:10008000BD6DEDFD753EF6177231BF000000803F7B
:1000900008000000BE922449123EABAAAA2ABECD97
:1000A000CCCC4C3E00000080BEABAAAAAA3E000009
:1000B0000000BF000000803F000000000008417801
:1000C000D3BB4387D1133D190E3CC3BD4282AD2B38
:1000D0003E68EC8276BED98FE1A93E4C80EFFFBE30
:1000E00001C4FF7F3F000000000011241FBECFEFBE
:1000F000D8E0DEBFCDBF13E0A0E0B1E0EEE6FDE06A
:1001000002C005900D92A030B107D9F723E0A0E01E
:10011000B3E001C01D92A532B207E1F70E946E0262
:100120000C94B5060C940000CF93DF93FC01808102
:10013000811112C080911A0390911B0395838483CF
:1001400080910003843020F48F5F8093000343C0CC
:1001500084E0809300033FC08230A1F4CAE1D3E081
:10016000848195816A817B810E94A10628813981E1
:10017000629FC001639F900D729F900D1124958323
:10018000848329C08330A1F4CAE1D3E084819581BE
:100190006C817D810E94A10628813981629FC00106
:1001A000639F900D729F900D11249583848313C0DB
:1001B000CAE1D3E0848195816E817F810E94A1068E
:1001C00028813981629FC001639F900D729F900DBD
:1001D00011249583848381E08083DF91CF910895FA
:1001E000FC0110821182128280910003882321F089
:1001F0008150809300030895109200030895FC013C
:100200009081913049F482E0808380911C03909129
:100210001D03958384830895923049F483E080839D
:1002200080911E0390911F039583848308959330DA
:1002300049F484E080838091200390912103958389
:1002400084830895943019F4CF010E94F00008953A
:100250001F920F920FB60F9211242F933F934F933B
:100260005F938F939F93AF93BF93CF93DF93EF935E
:10027000FF93B89B06C0B99A809101038F5F80936A
:100280000103E2E0F3E08281C085A6855489282F2E
:10029000269530E020503F4FF901208190E08050BA
:1002A0009E4FFC01808190E0820F911D9C0135954D
:1002B00027958C2F869590E080509F4FFC014081C0
:1002C000D0E0C050DE4F9881892F90E0840F911DBF
:1002D00095958795820F931FCA2FC695D0E0C05081
:1002E000DF4F4881B0E0A050BE4F2C9130E0240F8A
:1002F000311D35952795820F931FA52FA695B0E048
:10030000A050BF4F4C91E52FF0E0E050FE4F208110
:1003100030E0240F311D35952795820F931F2091D2
:100320000003233039F02430A9F02230B9F4959538
:10033000879514C09C0135952795359527959595FA
:100340008795959587959595879595958795820F2E
:10035000931F04C095958795959587958093880000
:10036000E2E0F3E02AE133E0DF018081882321F03D
:1003700092818381890F828314968D919C91159728
:10038000009729F0019715969C938E9314973696B3
:10039000E217F30749F7FF91EF91DF91CF91BF91FA
:1003A000AF919F918F915F914F913F912F910F90BE
:1003B0000FBE0F901F901895ECE7F0E09081907FB2
:1003C0008F70892B8083EAE7F0E0808180648083EE
:1003D000808186FDFDCF809179000895E0EBF0E00B
:1003E000808182608083E1EBF0E0808185608083A2
:1003F00080E48093B300E0E8F0E08081826880834D
:10040000E1E8F0E0808189618083EFE6F0E08081BF
:10041000816080838BE691E09093870080938600D3
:100420008FEF90E0909389008093880078940895EE
:1004300080E680937C00EAE7F0E080818768808333
:10044000808180648083808186FDFDCF08958AB19C
:100450008F608AB9219A08950F931F93CF93DF93EA
:10046000C2E0D3E000E010E01A821882B801012E49
:10047000000C880B990B0E9444039B01AC0160E0C7
:1004800070E080E090E40E94A8030E9413036B8355
:1004900019821D821C820F5F1F4F269604301105A2
:1004A00019F7EAE1F3E088EB9BE09183808380EA2F
:1004B0009FE09383828380E89EE39583848380E436
:1004C0009FE1978386838BE080878FE081878FE130
:1004D0008287DF91CF911F910F910895CF93DF9382
:1004E000CDB7DEB761970FB6F894DEBF0FBECDBFB4
:1004F00019821A821B821C821D821E821F8218860C
:1005000019861A861B861C860E9418020E942702E2
:100510000E94EE010E942C0266246394712C688A6A
:10052000798A81E08E876E0199E0C90ED11C4E0157
:10053000E5E08E0E911C0F2EF2E0EF2EF3E0FF2E81
:10054000F02DCE0101965C0100E010E00D87160150
:10055000F6018081882359F02BB1C301002E02C01F
:10056000880F991F0A94E2F7822B8BB90CC09BB1BC
:100570009301002E02C0220F331F0A94E2F7822F4C
:10058000809589238BB927018E85F70124813581D8
:10059000232B09F080E0882359F08E85F2019081A9
:1005A000911101C080E0882319F0C2010E94FF0070
:1005B000F501F081FF878D850E94DC01F5018193B3
:1005C0005F01823330F0F401808381E0F1018083A8
:1005D0001AC0288939899F85891710F020E030E0FA
:1005E000F1019081892F90E082239323892B49F098
:1005F000F4018081F2018183C2010E949400F40120
:100600001082F10110820F5F1F4FFFEFCF1ADF0A38
:100610008FEF881A980A96E0E90EF11C0430110554
:1006200009F094CF80CF0E94870388F09F5798F0FD
:10063000B92F9927B751B0F0E1F0660F771F881FE7
:10064000991F1AF0BA95C9F714C0B13091F00E9401
:10065000A103B1E008950C94A103672F782F882798
:10066000B85F39F0B93FCCF3869577956795B39528
:10067000D9F73EF490958095709561957F4F8F4F97
:100680009F4F0895E89409C097FB3EF4909580959C
:10069000709561957F4F8F4F9F4F9923A9F0F92F48
:1006A00096E9BB279395F695879577956795B795C6
:1006B000F111F8CFFAF4BB0F11F460FF1BC06F5FAC
:1006C0007F4F8F4F9F4F16C0882311F096E911C0BE
:1006D000772321F09EE8872F762F05C0662371F0DF
:1006E00096E8862F70E060E02AF09A95660F771FF3
:1006F000881FDAF7880F9695879597F9089557FD23
:100700009058440F551F59F05F3F71F04795880F7F
:1007100097FB991F61F09F3F79F087950895121616
:1007200013061406551FF2CF4695F1DF08C01616C2
:1007300017061806991FF1CF869571056105089473
:100740000895E894BB2766277727CB0197F908958A
:10075000FA01EE0FFF1F309621053105A1F1611559
:10076000710561F48038BFE39B0749F168949038C4
:10077000810561F08038BFEF9B0741F099234AF56E
:10078000FF3FE1053105210519F1E8940894E7954B
:10079000D901AA2329F4AB2FBE2FF85FD0F310C0E4
:1007A000FF5F70F4A695E0F7F73950F019F0FF3AC3
:1007B00038F49F779F930DD00F9007FC90580895C1
:1007C00046F00C94380460E070E080E89FE3089500
:1007D0004FE79F775F934F933F932F930E94AC0413
:1007E0002F913F914F915F910E9428050C94000436
:1007F00029F416F00C9432040C94A1030C943804E0
:100800000E948703A8F39638A0F707F80F92E894A0
:100810002BE33AEA48EB5FE70E943E050F920F9206
:100820000F924DB75EB70F920E94F404E8E6F0E035
:100830000E943B044F915F91EF91FF91E595EE1F70
:10084000FF1F49F0FE57E0684427EE0F441FFA955A
:10085000E1F74195550B0E946E040F9007FE0C9432
:100860006204089597F99F6780E870E060E008955A
:100870009FEF80EC0895DF93CF931F930F93FF9228
:10088000EF92DF927B018C01689406C0DA2EEF01B3
:100890000E943B05FE01E894A59125913591459173
:1008A0005591A6F3EF010E94AD05FE019701A80145
:1008B000DA9469F7DF90EF90FF900F911F91CF913D
:1008C000DF9108959B01AC0160E070E080E89FE358
:1008D0000C9402060C9432040C9474060E94870354
:1008E000D8F39923C9F3940F511DA3F391505040AD
:1008F00094F059F0882332F0660F771F881F9150CB
:100900005040C1F79E3F51052CF7880F911D9695D9
:10091000879597F908955F3FACF0983E9CF0BB2710
:10092000869577956795B79508F4B1609395C1F76B
:10093000BB0F58F711F460FFE8CF6F5F7F4F8F4F09
:100940009F4FE3CF0C94A20316F00C9474060C9402
:10095000380468940C9432040E948703A8F3992306
:10096000C1F3AEF3DF93CF931F930F93FF92C92F81
:10097000DD2788232AF02197660F771F881FDAF773
:1009800020E030E040E85FEB9FE3883920F0803ED4
:1009900038F021968F770E949605E0E9F0E004C0D8
:1009A0000E949605EDEBF0E00E943B048B01BE0136
:1009B000EC01FB2E6F5771097595771F880B990B0A
:1009C0000E94440328E132E741E35FE30E943B05D4
:1009D000AF2D9801AE01FF900F911F91CF91DF9144
:1009E0000E94AD050C949006FA01DC01AA0FBB1F12
:1009F0009B01AC01BF5728F42227332744275078A6
:100A000020C0B75190F4AB2F002446953795279519
:100A1000011CA395D2F3002071F0220F331F441F55
:100A2000B395DAF30ED00C94950561307105A0E80A
:100A30008A07B94630F49B01AC01662777278827DF
:100A40009078309621F02083318342835383089538
:100A50000E943B050C9490060E94820638F00E948A
:100A6000890620F0952311F00C9432040C9438047C
:100A700011240C94A2030E947F0370F3959FC1F38D
:100A8000950F50E0551F629FF001729FBB27F00D3C
:100A9000B11D639FAA27F00DB11DAA1F649F662791
:100AA000B00DA11D661F829F2227B00DA11D621FE0
:100AB000739FB00DA11D621F839FA00D611D221F9A
:100AC000749F3327A00D611D231F849F600D211D7E
:100AD000822F762F6A2F11249F5750409AF0F1F001
:100AE00088234AF0EE0FFF1FBB1F661F771F881F6A
:100AF00091505040A9F79E3F510580F00C9432046C
:100B00000C94A2035F3FE4F3983ED4F38695779567
:100B10006795B795F795E7959F5FC1F7FE2B880F0F
:100B2000911D9695879597F908955058BB27AA2748
:100B30000E94AD050C9490060E94820638F00E9437
:100B4000890620F039F49F3F19F426F40C943804F8
:100B50000EF4E095E7FB0C943204E92F0E947F032A
:100B600058F3BA17620773078407950720F079F4E2
:100B7000A6F50C94A1030EF4E0950B2EBA2FA02D30
:100B80000B01B90190010C01CA01A0011124FF273A
:100B9000591B99F0593F50F4503E68F11A16F04035
:100BA000A22F232F342F4427585FF3CF4695379534
:100BB0002795A795F0405395C9F77EF41F16BA0BF9
:100BC000620B730B840BBAF09150A1F0FF0FBB1FA7
:100BD000661F771F881FC2F70EC0BA0F621F731FF0
:100BE000841F48F4879577956795B795F7959E3F4D
:100BF00008F0B0CF9395880F08F09927EE0F9795DE
:100C0000879508950E9416060C9490060E94890606
:100C100058F00E94820640F029F45F3F29F00C94BE
:100C2000320451110C94A2030C9438040E947F03E7
:100C300068F39923B1F3552391F3951B550BBB270B
:100C4000AA2762177307840738F09F5F5F4F220F50
:100C5000331F441FAA1FA9F335D00E2E3AF0E0E847
:100C600032D091505040E695001CCAF72BD0FE2F91
:100C700029D0660F771F881FBB1F26173707480725
:100C8000AB07B0E809F0BB0B802DBF01FF279358DD
:100C90005F4F3AF09E3F510578F00C9432040C946B
:100CA000A2035F3FE4F3983ED4F38695779567956A
:100CB000B795F7959F5FC9F7880F911D9695879512
:100CC00097F90895E1E0660F771F881FBB1F621731
:100CD00073078407BA0720F0621B730B840BBA0BEF
:100CE000EE1F88F7E09508959F3F31F0915020F472
:100CF000879577956795B795880F911D96958795F8
:100D000097F9089500240A9416161706180609067E
:100D1000089500240A941216130614060506089571
:100D2000092E0394000C11F4882352F0BB0F40F4F9
:100D3000BF2B11F460FF04C06F5F7F4F8F4F9F4F39
:100D40000895AA1BBB1B51E107C0AA1FBB1FA61712
:100D5000B70710F0A61BB70B881F991F5A95A9F764
:0E0D600080959095BC01CD010895F894FFCFC9
:100D6E00020406080A0C0E10121416181A1C1E2065
:100D7E00222426282A2C2E30323436383A3C3E4055
:100D8E00424446484A4C4E50525456585A5C5E6045
:100D9E00626466686A6C6E70727476787A7C7E8035
:100DAE0081838587898B8D8F91939597999B9D9F35
:100DBE00A1A3A5A7A9ABADAFB1B3B5B7B9BBBDBF25
:100DCE00C1C3C5C7C9CBCDCFD1D3D5D7D9DBDDDF15
:100DDE00E1E3E5E7E9EBEDEFF1F3F5F7F9FBFDFF05
:100DEE00FDFBF9F7F5F3F1EFEDEBE9E7E5E3E1DF15
:100DFE00DDDBD9D7D5D3D1CFCDCBC9C7C5C3C1BF05
:100E0E00BDBBB9B7B5B3B1AFADABA9A7A5A3A19FF4
:100E1E009D9B99979593918F8D8B898785838180E3
:100E2E007E7C7A78767472706E6C6A6866646260C4
:100E3E005E5C5A58565452504E4C4A4846444240B4
:100E4E003E3C3A38363432302E2C2A2826242220A4
:100E5E001E1C1A18161412100E0C0A080604020094
:100E6E000000000001010102020304050506070946
:100E7E000A0B0C0E0F1112141517191B1D1F21230F
:100E8E0025282A2C2F313436393B3E414346494CD6
:100E9E004F5255585A5D6164676A6D707376797CEE
:100EAE00808386898C8F9295989B9EA2A5A7AAADCA
:100EBE00B0B3B6B9BCBEC1C4C6C9CBCED0D3D5D7DC
:100ECE00DADCDEE0E2E4E6E8EAEBEDEEF0F1F3F494
:100EDE00F5F6F8F9FAFAFBFCFDFDFEFEFEFFFFFF4C
:100EEE00FFFFFFFFFEFEFEFDFDFCFBFAFAF9F8F632
:100EFE00F5F4F3F1F0EEEDEBEAE8E6E4E2E0DEDC49
:100F0E00DAD7D5D3D0CECBC9C6C4C1BEBCB9B6B361
:100F1E00B0ADAAA7A5A29E9B9895928F8C89868329
:100F2E00807C797673706D6A6764615D5A5855522C
:100F3E004F4C494643413E3B393634312F2C2A28FB
:100F4E002523211F1D1B1917151412110F0E0C0B23
:100F5E000A0907060505040302020101010000004B
:00000001FF
