:100000000C9475000C9492000C9492000C94920045
:100010000C9492000C9492000C9492000C94920018
:100020000C9492000C9492000C9492000C94920008
:100030000C9492000C94CE000C9492000C949200BC
:100040000C9492000C9492000C9492000C949200E8
:100050000C9492000C9492000C9492000C949200D8
:100060000C9492000C94920007634236B79BD8A779
:100070001A39685618AEBAAB558C1D3CB7CC5763CD
:10008000BD6DEDFD753EF6177231BF000000803F7B
:1000900008000000BE922449123EABAAAA2ABECD97
:1000A000CCCC4C3E00000080BEABAAAAAA3E000009
:1000B0000000BF000000803F000000000008417801
:1000C000D3BB4387D1133D190E3CC3BD4282AD2B38
:1000D0003E68EC8276BED98FE1A93E4C80EFFFBE30
:1000E00001C4FF7F3F000000000011241FBECFEFBE
:1000F000D8E0DEBFCDBF13E0A0E0B1E0E6E4FCE075
:1001000002C005900D92A030B107D9F723E0A0E01E
:10011000B3E001C01D92AA31B207E1F70E94E901E4
:100120000C9421060C940000FC01EE0FFF1FDF0170
:10013000A80FB91FAA0FBB1FAE5FBC4F21E02C93C5
:10014000FD01818114961C92149715968C938091D1
:100150000003843020F48F5F80930003089584E0CF
:10016000809300030895FC01EE0FFF1FDF01A80F2D
:10017000B91FAA0FBB1FAE5FBC4F1C9211961C92F9
:100180001197FD01128280910003882321F0815094
:100190008093000308951092000308951F920F9218
:1001A0000FB60F9211242F933F934F935F938F932A
:1001B0009F93AF93BF93CF93DF93EF93FF93B89B3E
:1001C00006C0B99A809101038F5F80930103A2E07A
:1001D000B3E01296EC911297F0E0E050FF4F2081CF
:1001E0001896EC911897F0E0E050FE4F808190E077
:1001F000820F911D1E96EC911E97F0E0E050FE4F8D
:100200002081820F911D5496EC91F0E0E050FE4F5A
:100210002081820F911D20910003233039F024307A
:10022000A9F02230B9F49595879514C09C013595B5
:1002300027953595279595958795959587959595C6
:10024000879595958795820F931F04C095958795FF
:100250009595879580938800C0910103D0E0E2E0F6
:10026000F3E04AE153E021E030E0C050DE4FDF012F
:100270008081922F811101C0932F9923B1F0922F89
:10028000853009F4932F992381F012969C9112974F
:1002900013968C911397890F9881929596959695C0
:1002A0009370890F12968C93129714968D919C914E
:1002B0001597009729F0019715969C938E931497A4
:1002C0003696E417F50799F6FF91EF91DF91CF91FC
:1002D000BF91AF919F918F915F914F913F912F91DE
:1002E0000F900FBE0F901F901895ECE7F0E09081F3
:1002F000907F8F70892B8083EAE7F0E080818064B3
:100300008083808186FDFDCF809179000895E0EBA8
:10031000F0E0808182608083E1EBF0E080818560A5
:10032000808380E48093B300E0E8F0E0808181681E
:100330008083E1E8F0E0808189608083EFE6F0E08F
:1003400080818160808378948FE090E09093890031
:1003500080938800089580E680937C00EAE7F0E0CF
:10036000808187688083808180648083808186FD2E
:10037000FDCF08958AB18F608AB9219A08950F93AD
:100380001F93CF93DF93C2E0D3E000E010E01A8226
:100390001882B801012E000C880B990B0E94C40230
:1003A0009B01AC0160E070E080E090E40E942803D3
:1003B0000E9493026B8319821D821C820F5F1F4F64
:1003C00026960430110519F7DF91CF911F910F91F7
:1003D0000895CF93DF93CDB7DEB763970FB6F89448
:1003E000DEBF0FBECDBF19821A821B821C821D8206
:1003F0001E821F82188619861A861B861C860E94FA
:10040000AB010E94BA010E9487010E94BF016624CD
:100410006394712C6A8A7B8A81E08D870F2EF2E0CB
:10042000EF2EF3E0FF2EF02D4E0195E0890E911C8A
:100430005E01E9E0AE0EB11CCE0101966C0100E058
:1004400010E0302E088B198B2701F7018081813055
:1004500059F42BB1C301002E02C0880F991F0A94D2
:10046000E2F7822B8BB90CC09BB19301002E02C026
:10047000220F331F0A94E2F7822F809589238BB9CC
:100480008D85F20124813581232B09F080E08823BA
:1004900061F08D85F2019081913009F080E0882330
:1004A00021F0888999890E94B300F6012080832D6C
:1004B0000E947501F60181936F01823330F0F401DF
:1004C000808381E0F50180831EC0BF86AE862A89C5
:1004D0003B89821510F020E030E0EE85FF859081A9
:1004E000892F90E082239323892B51F0F40180819E
:1004F000F2018183888999890E949400F401108215
:10050000EE85FF8510820F5F1F4FF6E0EF0EF11CA6
:100510008FEF881A980A9FEFA91AB90A04301105BB
:1005200009F08FCF7BCF0E94070388F09F5798F088
:10053000B92F9927B751B0F0E1F0660F771F881FE8
:10054000991F1AF0BA95C9F714C0B13091F00E9402
:100550002103B1E008950C942103672F782F882799
:10056000B85F39F0B93FCCF3869577956795B39529
:10057000D9F73EF490958095709561957F4F8F4F98
:100580009F4F0895E89409C097FB3EF4909580959D
:10059000709561957F4F8F4F9F4F9923A9F0F92F49
:1005A00096E9BB279395F695879577956795B795C7
:1005B000F111F8CFFAF4BB0F11F460FF1BC06F5FAD
:1005C0007F4F8F4F9F4F16C0882311F096E911C0BF
:1005D000772321F09EE8872F762F05C0662371F0E0
:1005E00096E8862F70E060E02AF09A95660F771FF4
:1005F000881FDAF7880F9695879597F9089557FD24
:100600009058440F551F59F05F3F71F04795880F80
:1006100097FB991F61F09F3F79F087950895121617
:1006200013061406551FF2CF4695F1DF08C01616C3
:1006300017061806991FF1CF869571056105089474
:100640000895E894BB2766277727CB0197F908958B
:10065000FA01EE0FFF1F309621053105A1F161155A
:10066000710561F48038BFE39B0749F168949038C5
:10067000810561F08038BFEF9B0741F099234AF56F
:10068000FF3FE1053105210519F1E8940894E7954C
:10069000D901AA2329F4AB2FBE2FF85FD0F310C0E5
:1006A000FF5F70F4A695E0F7F73950F019F0FF3AC4
:1006B00038F49F779F930DD00F9007FC90580895C2
:1006C00046F00C94B80360E070E080E89FE3089582
:1006D0004FE79F775F934F933F932F930E942C0494
:1006E0002F913F914F915F910E94A8040C94800339
:1006F00029F416F00C94B2030C9421030C94B80363
:100700000E940703A8F39638A0F707F80F92E89421
:100710002BE33AEA48EB5FE70E94BE040F920F9288
:100720000F924DB75EB70F920E947404E8E6F0E0B6
:100730000E94BB034F915F91EF91FF91E595EE1FF2
:10074000FF1F49F0FE57E0684427EE0F441FFA955B
:10075000E1F74195550B0E94EE030F9007FE0C94B4
:10076000E203089597F99F6780E870E060E00895DC
:100770009FEF80EC0895DF93CF931F930F93FF9229
:10078000EF92DF927B018C01689406C0DA2EEF01B4
:100790000E94BB04FE01E894A591259135914591F5
:1007A0005591A6F3EF010E942D05FE019701A801C6
:1007B000DA9469F7DF90EF90FF900F911F91CF913E
:1007C000DF9108959B01AC0160E070E080E89FE359
:1007D0000C9482050C94B2030C94F4050E94070358
:1007E000D8F39923C9F3940F511DA3F391505040AE
:1007F00094F059F0882332F0660F771F881F9150CC
:100800005040C1F79E3F51052CF7880F911D9695DA
:10081000879597F908955F3FACF0983E9CF0BB2711
:10082000869577956795B79508F4B1609395C1F76C
:10083000BB0F58F711F460FFE8CF6F5F7F4F8F4F0A
:100840009F4FE3CF0C94220316F00C94F4050C9404
:10085000B80368940C94B2030E940703A8F3992389
:10086000C1F3AEF3DF93CF931F930F93FF92C92F82
:10087000DD2788232AF02197660F771F881FDAF774
:1008800020E030E040E85FEB9FE3883920F0803ED5
:1008900038F021968F770E941605E0E9F0E004C059
:1008A0000E941605EDEBF0E00E94BB038B01BE0138
:1008B000EC01FB2E6F5771097595771F880B990B0B
:1008C0000E94C40228E132E741E35FE30E94BB04D7
:1008D000AF2D9801AE01FF900F911F91CF91DF9145
:1008E0000E942D050C941006FA01DC01AA0FBB1F13
:1008F0009B01AC01BF5728F42227332744275078A7
:1009000020C0B75190F4AB2F00244695379527951A
:10091000011CA395D2F3002071F0220F331F441F56
:10092000B395DAF30ED00C94150561307105A0E88B
:100930008A07B94630F49B01AC01662777278827E0
:100940009078309621F02083318342835383089539
:100950000E94BB040C9410060E94020638F00E940C
:10096000090620F0952311F00C94B2030C94B803FF
:1009700011240C9422030E94FF0270F3959FC1F38F
:10098000950F50E0551F629FF001729FBB27F00D3D
:10099000B11D639FAA27F00DB11DAA1F649F662792
:1009A000B00DA11D661F829F2227B00DA11D621FE1
:1009B000739FB00DA11D621F839FA00D611D221F9B
:1009C000749F3327A00D611D231F849F600D211D7F
:1009D000822F762F6A2F11249F5750409AF0F1F002
:1009E00088234AF0EE0FFF1FBB1F661F771F881F6B
:1009F00091505040A9F79E3F510580F00C94B203EE
:100A00000C9422035F3FE4F3983ED4F386957795E8
:100A10006795B795F795E7959F5FC1F7FE2B880F10
:100A2000911D9695879597F908955058BB27AA2749
:100A30000E942D050C9410060E94020638F00E94B8
:100A4000090620F039F49F3F19F426F40C94B803FA
:100A50000EF4E095E7FB0C94B203E92F0E94FF022D
:100A600058F3BA17620773078407950720F079F4E3
:100A7000A6F50C9421030EF4E0950B2EBA2FA02DB1
:100A80000B01B90190010C01CA01A0011124FF273B
:100A9000591B99F0593F50F4503E68F11A16F04036
:100AA000A22F232F342F4427585FF3CF4695379535
:100AB0002795A795F0405395C9F77EF41F16BA0BFA
:100AC000620B730B840BBAF09150A1F0FF0FBB1FA8
:100AD000661F771F881FC2F70EC0BA0F621F731FF1
:100AE000841F48F4879577956795B795F7959E3F4E
:100AF00008F0B0CF9395880F08F09927EE0F9795DF
:100B0000879508950E9496050C9410060E94090688
:100B100058F00E94020640F029F45F3F29F00C943F
:100B2000B20351110C9422030C94B8030E94FF02EB
:100B300068F39923B1F3552391F3951B550BBB270C
:100B4000AA2762177307840738F09F5F5F4F220F51
:100B5000331F441FAA1FA9F335D00E2E3AF0E0E848
:100B600032D091505040E695001CCAF72BD0FE2F92
:100B700029D0660F771F881FBB1F26173707480726
:100B8000AB07B0E809F0BB0B802DBF01FF279358DE
:100B90005F4F3AF09E3F510578F00C94B2030C94ED
:100BA00022035F3FE4F3983ED4F3869577956795EB
:100BB000B795F7959F5FC9F7880F911D9695879513
:100BC00097F90895E1E0660F771F881FBB1F621732
:100BD00073078407BA0720F0621B730B840BBA0BF0
:100BE000EE1F88F7E09508959F3F31F0915020F473
:100BF000879577956795B795880F911D96958795F9
:100C000097F9089500240A9416161706180609067F
:100C1000089500240A941216130614060506089572
:100C2000092E0394000C11F4882352F0BB0F40F4FA
:100C3000BF2B11F460FF04C06F5F7F4F8F4F9F4F3A
:060C40000895F894FFCFB7
:100C4600020406080A0C0E10121416181A1C1E208E
:100C5600222426282A2C2E30323436383A3C3E407E
:100C6600424446484A4C4E50525456585A5C5E606E
:100C7600626466686A6C6E70727476787A7C7E805E
:100C860081838587898B8D8F91939597999B9D9F5E
:100C9600A1A3A5A7A9ABADAFB1B3B5B7B9BBBDBF4E
:100CA600C1C3C5C7C9CBCDCFD1D3D5D7D9DBDDDF3E
:100CB600E1E3E5E7E9EBEDEFF1F3F5F7F9FBFDFF2E
:100CC600FDFBF9F7F5F3F1EFEDEBE9E7E5E3E1DF3E
:100CD600DDDBD9D7D5D3D1CFCDCBC9C7C5C3C1BF2E
:100CE600BDBBB9B7B5B3B1AFADABA9A7A5A3A19F1E
:100CF6009D9B99979593918F8D8B8987858381800D
:100D06007E7C7A78767472706E6C6A6866646260ED
:100D16005E5C5A58565452504E4C4A4846444240DD
:100D26003E3C3A38363432302E2C2A2826242220CD
:100D36001E1C1A18161412100E0C0A0806040200BD
:100D4600000000000101010202030405050607096F
:100D56000A0B0C0E0F1112141517191B1D1F212338
:100D660025282A2C2F313436393B3E414346494CFF
:100D76004F5255585A5D6164676A6D707376797C17
:100D8600808386898C8F9295989B9EA2A5A7AAADF3
:100D9600B0B3B6B9BCBEC1C4C6C9CBCED0D3D5D705
:100DA600DADCDEE0E2E4E6E8EAEBEDEEF0F1F3F4BD
:100DB600F5F6F8F9FAFAFBFCFDFDFEFEFEFFFFFF75
:100DC600FFFFFFFFFEFEFEFDFDFCFBFAFAF9F8F65B
:100DD600F5F4F3F1F0EEEDEBEAE8E6E4E2E0DEDC72
:100DE600DAD7D5D3D0CECBC9C6C4C1BEBCB9B6B38B
:100DF600B0ADAAA7A5A29E9B9895928F8C89868353
:100E0600807C797673706D6A6764615D5A58555255
:100E16004F4C494643413E3B393634312F2C2A2824
:100E26002523211F1D1B1917151412110F0E0C0B4C
:100E36000A09070605050403020201010100000074
:00000001FF
