S013000054616B7061645F333238502E7372656370
S11300000C9434000C9451000C9451000C94510045
S11300100C9451000C9451000C9451000C94510018
S11300200C9451000C9451000C9451000C94510008
S11300300C9451000C9453000C9451000C945100F6
S11300400C9451000C9451000C9451000C945100E8
S11300500C9451000C9451000C9451000C945100D8
S11300600C9451000C94510011241FBECFEFD8E022
S1130070DEBFCDBF13E0A0E0B1E0E0EAF4E002C0EF
S113008005900D92A230B107D9F723E0A2E0B3E0C6
S113009001C01D92A332B207E1F70E94B5010C948E
S11300A04E020C9400001F920F920FB60F9211246F
S11300B02F933F934F935F938F939F93AF93BF93EC
S11300C0CF93DF93EF93FF93B89B06C0B99A8091C7
S11300D002038F5F80930203E0910203F0E0EE5F7E
S11300E0FD4F2081259525952595809100019091BE
S11300F00101820F911D27FD9A95909387008093AB
S11301008600E3E0F3E08281C185A0895789282F26
S1130110269530E02E5F3E4FF901208190E08E5FFE
S11301209D4FFC018081082E000C990B820F911DBC
S113013027FD9A959C01359527958C2F869590E0FF
S11301408E5F9E4FFC014081D0E0CE5FDD4F9881F1
S1130150892F990F990B840F911D47FD9A959595B9
S11301608795820F931FCA2FC695D0E0CE5FDE4FCE
S11301704881B0E0AE5FBD4F2C91022E000C330BD2
S1130180240F311D47FD3A9535952795820F931F0E
S1130190A52FA695B0E0AE5FBE4F4C91E52FF0E0E1
S11301A0EE5FFD4F2081022E000C330B240F311D16
S11301B047FD3A9535952795820F931F9595879519
S11301C09595879581589F4F80938800E3E0F3E0ED
S11301D02FE133E08081882359F092818381890F54
S11301E08283468184819581840F911D95838483C4
S11301F03796E217F30771F7FF91EF91DF91CF91F3
S1130200BF91AF919F918F915F914F913F912F91AA
S11302100F900FBE0F901F901895FC0180818111E3
S113022003C0158214820FC0823059F424813581B1
S11302302F77332780E890E0821B930B9583848388
S113024002C01582148281E0808380911F0386831B
S11302500895FC01158214828081813031F482E09A
S113026080838091200386830895823031F483E073
S113027080838091210386830895833031F484E060
S113028080838091220386830895843019F4108238
S1130290118212820895ECE7F0E09081907F8F70D4
S11302A0892B8083EAE7F0E0808180648083808109
S11302B086FDFDCF809179000895E0EBF0E0808128
S11302C082608083E1EBF0E080818560808380E45C
S11302D08093B300E0E8F0E0808182688083E1E805
S11302E0F0E0808189618083EFE6F0E080818160C5
S11302F08083809100019091010190938700809305
S113030086008FEF90E09093890080938800789422
S1130310089580E680937C00EAE7F0E080818768B6
S11303208083808180648083808186FDFDCF0895F1
S11303308AB18F608AB9219A0895E3E0F3E081E0FD
S11303401282108283831182158214821682379658
S11303508E5F8930A9F7EFE1F3E08AE0808381833F
S113036085E0828382E083830895CF93DF93CDB7C2
S1130370DEB760970FB6F894DEBF0FBECDBF19820B
S11303801A821B821C821D821E821F821886198675
S11303901A861B861C860E9489010E9498010E946D
S11303A05D010E949D0166246394712C6F86788A96
S11303B06E0189E0C80ED11C4E0195E0890E911C96
S11303C00F2EF3E0EF2EF3E0FF2EF02DFE01319619
S11303D05F0100E010E0302E2601F60180818823C1
S11303E059F02BB1C301002E02C0880F991F0A9443
S11303F0E2F7822B8BB90CC09BB19301002E02C093
S1130400220F331F0A94E2F7822F809589238BB938
S1130410FE86ED86F701848187FF06C080818823EC
S113042019F0C7010E942901F5012080832D0E9443
S11304304B01F50181935F01823330F0F401808335
S113044081E0F20180831AC02F853889821510F06B
S113045020E030E0F2019081892F90E08223932301
S1130460892B51F0F4018081ED85FE858183CF01D4
S11304700E940D01F4011082F20110820F5F1F4FE0
S1130480FFEFCF1ADF0A8FEF881A980A97E0E90E78
S1130490F11C0430110509F09ECF8ACFF894FFCFE8
S11304A06B01807F7E7D7C7B7A7978777675747337
S11304B07271706F6E6D6C6B6A6968676665646390
S11304C06261605F5E5D5C5B5A5958575655545380
S11304D05251504F4E4D4C4B4A4948474645444370
S11304E04241403F3E3D3C3B3A3938373635343360
S11304F03231302F2E2D2C2B2A2928272625242350
S11305002221201F1E1D1C1B1A191817161514133F
S11305101211100F0E0D0C0B0A090807060504032F
S113052002010000FFFEFDFCFBFAF9F8F7F6F5F412
S1130530F3F2F1F0EFEEEDECEBEAE9E8E7E6E5E4FF
S1130540E3E2E1E0DFDEDDDCDBDAD9D8D7D6D5D4EF
S1130550D3D2D1D0CFCECDCCCBCAC9C8C7C6C5C4DF
S1130560C3C2C1C0BFBEBDBCBBBAB9B8B7B6B5B4CF
S1130570B3B2B1B0AFAEADACABAAA9A8A7A6A5A4BF
S1130580A3A2A1A09F9E9D9C9B9A999897969594AF
S1130590939291908F8E8D8C8B8A8988878685849F
S11305A08381000306090C0F1215181B1E21242732
S11305B02A2D303336393B3E414346494B4E505247
S11305C05557595B5E6062646667696B6C6E7071E7
S11305D0727475767778797A7B7B7C7D7D7E7E7E7E
S11305E07E7E7F7E7E7E7E7E7D7D7C7B7B7A79783F
S11305F0777675747271706E6C6B6967666462602D
S11306005E5B59575552504E4B494643413E3B3928
S11306103633302D2A2724211E1B1815120F0C09DE
S1130620060300FDFAF7F4F1EEEBE8E5E2DFDCD9CE
S1130630D6D3D0CDCAC7C5C2BFBDBAB7B5B2B0AEA6
S1130640ABA9A7A5A2A09E9C9A9997959492908FE6
S11306508E8C8B8A8988878685858483838282822F
S1130660828281828282828283838485858687884E
S1130670898A8B8C8E8F9092949597999A9C9EA040
S1130680A2A5A7A9ABAEB0B2B5B7BABDBFC2C5C724
S1130690CACDD0D3D6D9DCDFE2E5E8EBEEF1F4F74E
S10506A0FAFC5E
S9030000FC
